:100000000C9434000C9451000C9451000C94510049
:100010000C9451000C9451000C9451000C9451001C
:100020000C9451000C9451000C9451000C9451000C
:100030000C9451000C9451000C9451000C945100FC
:100040000C9451000C9451000C9451000C945100EC
:100050000C9451000C9451000C9451000C945100DC
:100060000C9451000C94510011241FBECFEFD8E026
:10007000DEBFCDBF11E0A0E0B1E0ECE6F8E002C0E9
:1000800005900D92A833B107D9F721E0A8E3B1E0BC
:1000900001C01D92AE33B207E1F70E94F4000C9448
:1000A00034040C94000087B1806387B988B1806301
:1000B00088B91092B90088E48093B80008958EE062
:1000C00091E00E94410184E98093BC008091BC00D2
:1000D00084FDFCCF089583E191E00E94410184EA10
:1000E0008093BC008091BC0087FFFCCF9091B90049
:1000F000987F81E0983009F480E00895CF93C82F6D
:1001000089E191E00E944101C093BB0084E88093A3
:10011000BC008091BC0087FFFCCF8091B900887F34
:10012000883141F48091B900887F803229F482E0DF
:10013000CF91089580E0FCCF81E0FACF8FE191E08C
:100140000E94410184EC8093BC008091BC0087FF39
:10015000FCCF8091BB00089588E291E00E944101AC
:1001600084E88093BC008091BC0087FFFCCF809125
:10017000BB0008959093C5008093C40088E18093EC
:10018000C1008EE08093C20008959091C00095FF59
:10019000FCCF8093C6000895CF93DF93EC01899143
:1001A000811103C0DF91CF9108950E94C500F7CF60
:1001B0008091C00087FFFCCF8091C6000895809198
:1001C000C00087FF08958091C600F9CFCF93C82F54
:1001D0008A3019F48DE00E94C5008C2F0E94C50062
:1001E00080E090E0CF91089587E690E00E94BA0009
:1001F0000E94530080E091E090933B0180933A018C
:1002000002E311E00E946B0080E20E947E000E94E7
:100210005F000E946B0080E20E947E000E94AC00A2
:10022000C82F0E945F008C2F0C2E000C990B9F93FF
:10023000CF931F930F930E942B012FEF83ED90E339
:10024000215080409040E1F700C000000F900F90D7
:100250000F900F90D7CFA0E0B0E0E1E3F1E00C9475
:100260000D04AE014B5F5F4FFA0161917191AF01D7
:1002700080913A0190913B010E946D01E2E00C9463
:1002800029040F931F93CF93DF93E0913A01F091EC
:100290003B01238100E010E021FD0EC00FEF1FEFB6
:1002A000C801DF91CF911F910F9108950995892B76
:1002B00011F00FEF1FEFCE01EC01899160913A012F
:1002C00070913B01DB011896ED91FC918111EECF0D
:1002D0008AE00995892B21F3E1CFABE0B0E0E3E7B9
:1002E000F1E00C94FE036C017B018A01FC01178292
:1002F0001682838181FFDAC19AE0492EF6012381BB
:10030000F70123FD859123FF81917F01811509F478
:100310001FC1853239F423FD959123FF91917F010F
:10032000953229F4B60190E00E946F03E7CF30E0E8
:10033000612C512C712CF0E27F1640F59B32D9F0E4
:1003400058F49032D1F09332F1F09E3299F576FC68
:10035000FFC0689476F806C09D3291F09033C1F4E6
:10036000689470F8F70123FD959123FF91917F0127
:100370009111E1CF29C0689471F8689472F8F2CFB6
:10038000689473F8EFCF689474F8ECCF77FC1CC0D6
:1003900080ED890F8A30C8F676FE05C0649C800D1A
:1003A0001124682EDFCF549C800D1124582E6894A0
:1003B00075F8D8CF9C3619F4689477F8D3CF9C346D
:1003C00009F44BC0983671F2892F8F7D85548330A4
:1003D00008F445C0933609F466C0933709F469C040
:1003E000933509F475C0943619F0993609F09FC019
:1003F000F80177FE95C061917191819191918F0182
:10040000272D2F76722E97FF09C0909580957095B5
:1004100061957F4F8F4F9F4F689477F82AE030E0C7
:10042000AE014F5F5F4F5A010E949F038A19A82EA9
:1004300076FEC5C0872D8E7FA61408F0BFC074FE5F
:1004400012C172FC06C1F72DFE7E7F2EB62C872DC1
:100450008678811509F4C0C001C131E083CF311520
:10046000F9F0085F1F4F8FE3898388248394912CD0
:10047000AE014F5F5F4F5A01E89477F873FC03C0F9
:1004800085149104B0F181149104D1F5511409F44B
:1004900035CFB60180E290E00E946F035A94F6CF08
:1004A0000C5F1F4FE0CFF801808189830E5F1F4FE3
:1004B000DCCFF801A190B1908F01662D70E076FC41
:1004C00002C06FEF7FEFC5010E9464034C01D4CFDF
:1004D000F801A190B1908F01662D70E076FC02C00A
:1004E0006FEF7FEFC5010E9459034C01689477F8C4
:1004F000C5CFB60180E290E00E946F035A94C0CF4E
:10050000F50177FC859177FE81915F01B60190E05E
:100510000E946F0351105A94F1E08F1A9108B3CFE3
:1005200061917191072E000C880B990B68CF372CC5
:10053000E89434F82AE030E0953739F1572D597FA7
:10054000352E903799F058F49835A9F09F36D9F0A8
:10055000F601868197812B96E1E10C941A04983775
:10056000B9F774FC05C020E130E00FC0689434F89E
:10057000689432F8F8CF74FE03C0872D8660382E59
:1005800020E132E002C028E030E0F80137FE11C07F
:1005900061917191819191918F01FE0131965F017D
:1005A000AF010E949F038A19A82E732CE89477F854
:1005B0003FCF6191719180E090E0EECF782EBA2C20
:1005C00074FE45CFFE01EA0DF11D8081803309F0F4
:1005D00043C0272D297E722E73FC0EC070FE4FC0C3
:1005E0006A2CB51418F4650C6B18B52C852D8B1975
:1005F0005B1408F480E0B80EB51408F042C05B1834
:1006000074FE41C0B60180E390E00E946F0372FE69
:1006100009C088E590E071FC02C088E790E0B6016F
:100620000E946F03A614D8F1AA94B12C4FEFA41A1C
:10063000B40ACE0101963C01A80EB91EF5018291C3
:100640005F01B60190E00E946F036A147B04B1F76A
:100650001DCFB62C782EB6CF72FC02C0B394BCCF9F
:10066000B394B394B9CFB62C782EF1CEB60180E214
:1006700090E00E946F0333943514C0F3B7CF3B2C46
:10068000FBCF512CBDCF872D8678811559F280E2A2
:1006900071FC8BE277FC8DE2B60190E0C1CFB60130
:1006A00080E390E00E946F036A94BCCF8FEF9FEFCE
:1006B00052CFFC010590615070400110D8F7809531
:1006C00090958E0F9F1F0895FC016150704001901E
:1006D0000110D8F7809590958E0F9F1F08950F9366
:1006E0001F93CF93DF93182F092FEB018B8181FD8F
:1006F00009C01FEF0FEF812F902FDF91CF911F9136
:100700000F91089582FF14C02E813F818C819D81BD
:10071000281739073CF4E881F981CF0101969983C4
:10072000888310838E819F8101969F838E83E3CF80
:10073000E885F985812F0995892BA1F3DACFFA0194
:10074000AA27283051F1203181F1E8946F936E7F10
:100750006E5F7F4F8F4F9F4FAF4FB1E03ED0B4E001
:100760003CD0670F781F891F9A1FA11D680F791F42
:100770008A1F911DA11D6A0F711D811D911DA11D53
:1007800020D009F468943F912AE0269F1124301963
:10079000305D3193DEF6CF010895462F4770405DFE
:1007A0004193B3E00FD0C9F7F6CF462F4F70405DAD
:1007B0004A3318F0495D31FD4052419302D0A9F708
:1007C000EACFB4E0A6959795879577956795BA9502
:1007D000C9F700976105710508959B01AC010A2EC8
:1007E00006945795479537952795BA95C9F7620F9F
:1007F000731F841F951FA01D08952F923F924F9243
:100800005F926F927F928F929F92AF92BF92CF92A0
:10081000DF92EF92FF920F931F93CF93DF93CDB7A9
:10082000DEB7CA1BDB0B0FB6F894DEBF0FBECDBF21
:1008300009942A88398848885F846E847D848C84F2
:100840009B84AA84B984C884DF80EE80FD800C81FB
:100850001B81AA81B981CE0FD11D0FB6F894DEBFDE
:0C0860000FBECDBFED010895F894FFCF4E
:10086C000000000200000000E600000000005374CD
:10087C006F70005374617274005772697465005222
:10088C006561642041636B0052656164204E616355
:08089C006B00307825580A00BA
:00000001FF
